:03900000028023C8
:1080200002803A9020437480F01280657540009081
:10803000806FD2A9D2AFD28C80FEC28C758CF975BC
:108040008A19D28CE540B4340690806F754000E503
:1080500040930540C083C082902040F0902041F0C2
:10806000D082D08332758901758CF9758A19228086
:1080700090A1B1C0CDDAE5EEF6FBFEFFFFFEFBF608
:10808000EEE5DACDC0B1A1908080705F4F4033261D
:108090001B120A0502000002050A121B2633404F7C
:0380A0005F70808E
:00000001FF
