:109000007490902043F075F02090204174FFF09010
:1090100020427400F074F0F0D5F0EE740090B000CF
:10902000F012902FF8E490B000E012909580F27D5D
:10903000007407902042F0902040E0B4000280F7D6
:1090400012908C902040E0B4000280EB7D0074010F
:10905000FF7E00902042F0902040E0B400028002A9
:10906000800EEE2408FEEF23FFB4080280C180E3E7
:10907000C31340030D80F9EFB40103ED800DB4027A
:1090800006ED2408FD8004ED2410FD227AFF79FF0F
:10909000D9FEDAFA22E890B000F090A00033332530
:1090A00082F5825005E58304F58375F0047C08E0C1
:1090B000C083C082902041F0C0E07400902042F054
:1090C00074F0F0DC028006D0E0130290B4D0E0D55A
:1090D000F0028008D082D083A30290ADD082D083EA
:0890E00090B000E074FFF022E3
:10A000000303FFFF9F03FFFF2503FFFF0D03FFFF78
:10A010009903FFFF4903FFFF4103FFFF1F03FFFFFA
:10A020000103FFFF0903FFFF1103FFFFC103FFFF50
:10A030006303FFFF8503FFFF6103FFFF7103FFFF62
:10A04000039FFFFF9F9FFFFF259FFFFF0D9FFFFFC8
:00000001FF
