:109000009020437482F0902040740FF074F0F0755B
:1090100037F0E537B4F012902041E0540FF53500F9
:1090200000B40E0512916780E9E5350000B40D0D1E
:109030007536F07537F31291AB00129178E5350073
:1090400000B40B0D7536F07537F61291AB00129126
:1090500089E5350000B4070D7536F07537F91291C2
:10906000AB0012919AE5370000B4F34F902041E035
:10907000540FF5350000B40E0C7536F37537F01249
:1090800091CC129167E5350000B40D06129178027B
:109090009065E5350000B40B0F7536F37537F612A1
:1090A00091AB1291897537F6E5350000B4070C7560
:1090B00036F37537F91291AB12919AE5370000B487
:1090C000F64E902041E0540FF5350000B40E0C75BB
:1090D00036F67537F01291CC129167E5350000B481
:1090E0000D0F7536F67537F31291CC129178029008
:1090F00065E5350000B40B0512918980BEE53500A9
:1091000000B4070C7536F67537F91291AB12919AC7
:10911000E537B4F94F902041E0540FF5350000B425
:109120000E0C7536F97537F01291CC129167E53552
:109130000000B40D0F7536F97537F31291CC12910A
:1091400078029065E5350000B40B0F7536F9753778
:10915000F61291CC129189029065E5350000B407B2
:109160000312918902901290204074E0F07899796E
:10917000991268501268502290204074D3F0789968
:1091800079991268501268502290204074B6F07895
:10919000997999126850126850229020407479F0A1
:1091A0007899799912685012685022AD36785079C2
:1091B00020126850126850902040EDF00D785079E0
:1091C00020126850126850EDB537E222AD36785063
:1091D0007920126850126850902040EDF01D7850B0
:0D91E0007920126850126850EDB537E22278
:00000001FF
